{
  "contractName": "SiteHost",
  "abi": [
    {
      "constant": true,
      "inputs": [
        {
          "internalType": "address",
          "name": "",
          "type": "address"
        },
        {
          "internalType": "uint256",
          "name": "",
          "type": "uint256"
        }
      ],
      "name": "sites",
      "outputs": [
        {
          "internalType": "bytes32",
          "name": "",
          "type": "bytes32"
        }
      ],
      "payable": false,
      "stateMutability": "view",
      "type": "function"
    },
    {
      "constant": false,
      "inputs": [
        {
          "internalType": "bytes32",
          "name": "siteToken",
          "type": "bytes32"
        }
      ],
      "name": "uploadSite",
      "outputs": [],
      "payable": false,
      "stateMutability": "nonpayable",
      "type": "function"
    },
    {
      "constant": true,
      "inputs": [],
      "name": "getSites",
      "outputs": [
        {
          "internalType": "bytes32[]",
          "name": "",
          "type": "bytes32[]"
        }
      ],
      "payable": false,
      "stateMutability": "view",
      "type": "function"
    }
  ],
  "bytecode": "0x608060405234801561001057600080fd5b50610297806100206000396000f3fe608060405234801561001057600080fd5b50600436106100415760003560e01c80631db1d0501461004657806388459b1414610074578063dd79f610146100d6575b600080fd5b6100726004803603602081101561005c57600080fd5b8101908080359060200190929190505050610135565b005b6100c06004803603604081101561008a57600080fd5b81019080803573ffffffffffffffffffffffffffffffffffffffff169060200190929190803590602001909291905050506101a0565b6040518082815260200191505060405180910390f35b6100de6101ce565b6040518080602001828103825283818151815260200191508051906020019060200280838360005b83811015610121578082015181840152602081019050610106565b505050509050019250505060405180910390f35b6000803373ffffffffffffffffffffffffffffffffffffffff1673ffffffffffffffffffffffffffffffffffffffff16815260200190815260200160002081908060018154018082558091505090600182039060005260206000200160009091929091909150555050565b600060205281600052604060002081815481106101b957fe5b90600052602060002001600091509150505481565b60606000803373ffffffffffffffffffffffffffffffffffffffff1673ffffffffffffffffffffffffffffffffffffffff16815260200190815260200160002080548060200260200160405190810160405280929190818152602001828054801561025857602002820191906000526020600020905b815481526020019060010190808311610244575b505050505090509056fea265627a7a7231582032a39eb6b19651ca6dfb4802ffc8b92eeb3c61aa858ffb1409704414a4fac1bc64736f6c63430005100032",
  "source": "// SPDX-License-Identifier: MIT\r\npragma solidity ^0.5.0;\r\n\r\ncontract SiteHost {\r\n    mapping(address => bytes32[]) public sites;\r\n\r\n    function uploadSite(bytes32 siteToken) public {\r\n        sites[msg.sender].push(siteToken);\r\n    }\r\n\r\n    function getSites() public view returns (bytes32[] memory) {\r\n        return sites[msg.sender];\r\n    }\r\n}\r\n",
  "sourcePath": "C:\\Users\\hecker\\Projects\\theta_nodemarket\\web-hosting\\blockchain\\contracts\\SiteHost.sol",
  "compiler": {
    "name": "solc",
    "version": "0.5.16+commit.9c3226ce.Emscripten.clang"
  },
  "schemaVersion": "3.4.14",
  "updatedAt": "2023-06-01T02:15:36.288Z",
  "networkType": "ethereum",
  "devdoc": {
    "methods": {}
  },
  "userdoc": {
    "methods": {}
  }
}